{
  "contractName": "Change_Org",
  "abi": [
    {
      "constant": true,
      "inputs": [],
      "name": "state",
      "outputs": [
        {
          "name": "",
          "type": "uint8"
        }
      ],
      "payable": false,
      "stateMutability": "view",
      "type": "function"
    },
    {
      "inputs": [
        {
          "name": "maxNumPetitions",
          "type": "uint256"
        }
      ],
      "payable": false,
      "stateMutability": "nonpayable",
      "type": "constructor"
    },
    {
      "constant": false,
      "inputs": [
        {
          "name": "x",
          "type": "uint8"
        }
      ],
      "name": "changeState",
      "outputs": [],
      "payable": false,
      "stateMutability": "nonpayable",
      "type": "function"
    },
    {
      "constant": false,
      "inputs": [
        {
          "name": "petitionNumber",
          "type": "uint256"
        },
        {
          "name": "petitionScope",
          "type": "uint8"
        }
      ],
      "name": "raisePetition",
      "outputs": [],
      "payable": false,
      "stateMutability": "nonpayable",
      "type": "function"
    },
    {
      "constant": false,
      "inputs": [
        {
          "name": "voter",
          "type": "address"
        },
        {
          "name": "expert",
          "type": "bool"
        },
        {
          "name": "age",
          "type": "uint256"
        },
        {
          "name": "voterScope",
          "type": "uint8"
        }
      ],
      "name": "registerVoter",
      "outputs": [],
      "payable": false,
      "stateMutability": "nonpayable",
      "type": "function"
    },
    {
      "constant": false,
      "inputs": [
        {
          "name": "petitionNumber",
          "type": "uint256"
        },
        {
          "name": "voteType_",
          "type": "uint8"
        }
      ],
      "name": "vote",
      "outputs": [],
      "payable": false,
      "stateMutability": "nonpayable",
      "type": "function"
    },
    {
      "constant": false,
      "inputs": [
        {
          "name": "petitionNumber",
          "type": "uint256"
        },
        {
          "name": "amount",
          "type": "uint256"
        }
      ],
      "name": "donate",
      "outputs": [],
      "payable": false,
      "stateMutability": "nonpayable",
      "type": "function"
    },
    {
      "constant": true,
      "inputs": [
        {
          "name": "petitionNumber",
          "type": "uint256"
        }
      ],
      "name": "reqPetitionStatus",
      "outputs": [
        {
          "name": "forCount",
          "type": "uint256"
        },
        {
          "name": "againstCount",
          "type": "uint256"
        }
      ],
      "payable": false,
      "stateMutability": "view",
      "type": "function"
    },
    {
      "constant": true,
      "inputs": [
        {
          "name": "petitionNumber",
          "type": "uint256"
        }
      ],
      "name": "reqDonationAmount",
      "outputs": [
        {
          "name": "usd",
          "type": "uint256"
        }
      ],
      "payable": false,
      "stateMutability": "view",
      "type": "function"
    },
    {
      "constant": true,
      "inputs": [],
      "name": "getCurrentState",
      "outputs": [
        {
          "name": "currentState",
          "type": "uint8"
        }
      ],
      "payable": false,
      "stateMutability": "view",
      "type": "function"
    }
  ],
  "bytecode": "0x60806040526000600360006101000a81548160ff021916908360048111156200002457fe5b02179055503480156200003657600080fd5b5060405160208062001c5e833981018060405260208110156200005857600080fd5b810190808051906020019092919050505033600160006101000a81548173ffffffffffffffffffffffffffffffffffffffff021916908373ffffffffffffffffffffffffffffffffffffffff1602179055506002806000600160009054906101000a900473ffffffffffffffffffffffffffffffffffffffff1673ffffffffffffffffffffffffffffffffffffffff1673ffffffffffffffffffffffffffffffffffffffff16815260200190815260200160002060000181905550600560026000600160009054906101000a900473ffffffffffffffffffffffffffffffffffffffff1673ffffffffffffffffffffffffffffffffffffffff1673ffffffffffffffffffffffffffffffffffffffff16815260200190815260200160002060010181905550606460026000600160009054906101000a900473ffffffffffffffffffffffffffffffffffffffff1673ffffffffffffffffffffffffffffffffffffffff1673ffffffffffffffffffffffffffffffffffffffff16815260200190815260200160002060020181905550602360026000600160009054906101000a900473ffffffffffffffffffffffffffffffffffffffff1673ffffffffffffffffffffffffffffffffffffffff1673ffffffffffffffffffffffffffffffffffffffff168152602001908152602001600020600301819055506002806000600160009054906101000a900473ffffffffffffffffffffffffffffffffffffffff1673ffffffffffffffffffffffffffffffffffffffff1673ffffffffffffffffffffffffffffffffffffffff16815260200190815260200160002060040160016101000a81548160ff02191690836002811115620002d257fe5b0217905550600160026000600160009054906101000a900473ffffffffffffffffffffffffffffffffffffffff1673ffffffffffffffffffffffffffffffffffffffff1673ffffffffffffffffffffffffffffffffffffffff16815260200190815260200160002060040160036101000a81548160ff021916908315150217905550806000816200036491906200036c565b5050620003f7565b8154818355818111156200039c576006028160060283600052602060002091820191016200039b9190620003a1565b5b505050565b620003f491905b80821115620003f0576000808201600090556001820160009055600282016000905560038201600090556004820160006101000a81549060ff021916905550600601620003a8565b5090565b90565b61185780620004076000396000f3fe608060405234801561001057600080fd5b50600436106100935760003560e01c80636850179c116100665780636850179c14610194578063943e8216146101d6578063bfa3a1b514610211578063c19d93fb1461025a578063d67f985b1461028657610093565b80630cdd53f614610098578063268f1153146100d0578063378aa701146101015780634966bf7b1461012d575b600080fd5b6100ce600480360360408110156100ae57600080fd5b8101908080359060200190929190803590602001909291905050506102c1565b005b6100ff600480360360208110156100e657600080fd5b81019080803560ff169060200190929190505050610477565b005b6101096105dd565b6040518082600481111561011957fe5b60ff16815260200191505060405180910390f35b6101926004803603608081101561014357600080fd5b81019080803573ffffffffffffffffffffffffffffffffffffffff16906020019092919080351515906020019092919080359060200190929190803560ff1690602001909291905050506105f4565b005b6101c0600480360360208110156101aa57600080fd5b8101908080359060200190929190505050610975565b6040518082815260200191505060405180910390f35b61020f600480360360408110156101ec57600080fd5b8101908080359060200190929190803560ff169060200190929190505050610a3a565b005b61023d6004803603602081101561022757600080fd5b8101908080359060200190929190505050611285565b604051808381526020018281526020019250505060405180910390f35b610262611392565b6040518082600481111561027257fe5b60ff16815260200191505060405180910390f35b6102bf6004803603604081101561029c57600080fd5b8101908080359060200190929190803560ff1690602001909291905050506113a5565b005b60038060048111156102cf57fe5b600360009054906101000a900460ff1660048111156102ea57fe5b1461035d576040517f08c379a000000000000000000000000000000000000000000000000000000000815260040180806020018281038252601d8152602001807f496e76616c696420506861736520666f72207468697320616374696f6e00000081525060200191505060405180910390fd5b60011515600260003373ffffffffffffffffffffffffffffffffffffffff1673ffffffffffffffffffffffffffffffffffffffff16815260200190815260200160002060040160039054906101000a900460ff16151514610426576040517f08c379a00000000000000000000000000000000000000000000000000000000081526004018080602001828103825260168152602001807f4e6f742061205265676973746572656420566f7465720000000000000000000081525060200191505060405180910390fd5b60008211801561044057506000600a838161043d57fe5b06145b61044657fe5b816000848154811061045457fe5b906000526020600020906006020160020160008282540192505081905550505050565b600160009054906101000a900473ffffffffffffffffffffffffffffffffffffffff1673ffffffffffffffffffffffffffffffffffffffff163373ffffffffffffffffffffffffffffffffffffffff161461051d576040517f08c379a00000000000000000000000000000000000000000000000000000000081526004018080602001828103825260328152602001806117fa6032913960400191505060405180910390fd5b600360009054906101000a900460ff16600481111561053857fe5b81600481111561054457fe5b116105b7576040517f08c379a00000000000000000000000000000000000000000000000000000000081526004018080602001828103825260148152602001807f496e76616c6964205068617365204368616e676500000000000000000000000081525060200191505060405180910390fd5b80600360006101000a81548160ff021916908360048111156105d557fe5b021790555050565b6000600360009054906101000a900460ff16905090565b600180600481111561060257fe5b600360009054906101000a900460ff16600481111561061d57fe5b14610690576040517f08c379a000000000000000000000000000000000000000000000000000000000815260040180806020018281038252601d8152602001807f496e76616c696420506861736520666f72207468697320616374696f6e00000081525060200191505060405180910390fd5b600160009054906101000a900473ffffffffffffffffffffffffffffffffffffffff1673ffffffffffffffffffffffffffffffffffffffff163373ffffffffffffffffffffffffffffffffffffffff1614610736576040517f08c379a00000000000000000000000000000000000000000000000000000000081526004018080602001828103825260328152602001806117fa6032913960400191505060405180910390fd5b6001600260008773ffffffffffffffffffffffffffffffffffffffff1673ffffffffffffffffffffffffffffffffffffffff16815260200190815260200160002060040160036101000a81548160ff02191690831515021790555082600260008773ffffffffffffffffffffffffffffffffffffffff1673ffffffffffffffffffffffffffffffffffffffff1681526020019081526020016000206003018190555081600260008773ffffffffffffffffffffffffffffffffffffffff1673ffffffffffffffffffffffffffffffffffffffff16815260200190815260200160002060040160016101000a81548160ff0219169083600281111561083657fe5b0217905550831515600115151415610895576003600260008773ffffffffffffffffffffffffffffffffffffffff1673ffffffffffffffffffffffffffffffffffffffff168152602001908152602001600020600001819055506108de565b6001600260008773ffffffffffffffffffffffffffffffffffffffff1673ffffffffffffffffffffffffffffffffffffffff168152602001908152602001600020600001819055505b6005600260008773ffffffffffffffffffffffffffffffffffffffff1673ffffffffffffffffffffffffffffffffffffffff168152602001908152602001600020600101819055506003600260008773ffffffffffffffffffffffffffffffffffffffff1673ffffffffffffffffffffffffffffffffffffffff168152602001908152602001600020600201819055505050505050565b6000600480600481111561098557fe5b600360009054906101000a900460ff1660048111156109a057fe5b14610a13576040517f08c379a000000000000000000000000000000000000000000000000000000000815260040180806020018281038252601d8152602001807f496e76616c696420506861736520666f72207468697320616374696f6e00000081525060200191505060405180910390fd5b60008381548110610a2057fe5b906000526020600020906006020160020154915050919050565b60011515600260003373ffffffffffffffffffffffffffffffffffffffff1673ffffffffffffffffffffffffffffffffffffffff16815260200190815260200160002060040160039054906101000a900460ff16151514610b03576040517f08c379a00000000000000000000000000000000000000000000000000000000081526004018080602001828103825260168152602001807f4e6f742061205265676973746572656420566f7465720000000000000000000081525060200191505060405180910390fd5b6002806004811115610b1157fe5b600360009054906101000a900460ff166004811115610b2c57fe5b14610b9f576040517f08c379a000000000000000000000000000000000000000000000000000000000815260040180806020018281038252601d8152602001807f496e76616c696420506861736520666f72207468697320616374696f6e00000081525060200191505060405180910390fd5b8260008181548110610bad57fe5b906000526020600020906006020160040160009054906101000a900460ff166002811115610bd757fe5b600260003373ffffffffffffffffffffffffffffffffffffffff1673ffffffffffffffffffffffffffffffffffffffff16815260200190815260200160002060040160019054906101000a900460ff166002811115610c3257fe5b1015610ca6576040517f08c379a00000000000000000000000000000000000000000000000000000000081526004018080602001828103825260138152602001807f496e76616c696420566f7465722053636f70650000000000000000000000000081525060200191505060405180910390fd5b6012600260003373ffffffffffffffffffffffffffffffffffffffff1673ffffffffffffffffffffffffffffffffffffffff1681526020019081526020016000206003015411610d5e576040517f08c379a000000000000000000000000000000000000000000000000000000000815260040180806020018281038252600b8152602001807f496e76616c69642041676500000000000000000000000000000000000000000081525060200191505060405180910390fd5b6000151560008581548110610d6f57fe5b906000526020600020906006020160050160003373ffffffffffffffffffffffffffffffffffffffff1673ffffffffffffffffffffffffffffffffffffffff16815260200190815260200160002060040160029054906101000a900460ff16151514610e43576040517f08c379a000000000000000000000000000000000000000000000000000000000815260040180806020018281038252601d8152602001807f5468697320566f7465722068617320616c726561647920766f7465642e00000081525060200191505060405180910390fd5b6000600260003373ffffffffffffffffffffffffffffffffffffffff1673ffffffffffffffffffffffffffffffffffffffff1681526020019081526020016000206001015411610efb576040517f08c379a00000000000000000000000000000000000000000000000000000000081526004018080602001828103825260138152602001807f566f746520636f756e742045786365656465640000000000000000000000000081525060200191505060405180910390fd5b6000805490508410610f75576040517f08c379a00000000000000000000000000000000000000000000000000000000081526004018080602001828103825260108152602001807f556e6b6e6f776e205065746974696f6e0000000000000000000000000000000081525060200191505060405180910390fd5b60008481548110610f8257fe5b906000526020600020906006020160040160009054906101000a900460ff166002811115610fac57fe5b600260003373ffffffffffffffffffffffffffffffffffffffff1673ffffffffffffffffffffffffffffffffffffffff16815260200190815260200160002060040160019054906101000a900460ff16600281111561100757fe5b101561107b576040517f08c379a00000000000000000000000000000000000000000000000000000000081526004018080602001828103825260138152602001807f496e76616c696420566f7465722053636f70650000000000000000000000000081525060200191505060405180910390fd5b6001600260003373ffffffffffffffffffffffffffffffffffffffff1673ffffffffffffffffffffffffffffffffffffffff1681526020019081526020016000206001015403600260003373ffffffffffffffffffffffffffffffffffffffff1673ffffffffffffffffffffffffffffffffffffffff168152602001908152602001600020600101819055506000600181111561111457fe5b83600181111561112057fe5b141561119957600260003373ffffffffffffffffffffffffffffffffffffffff1673ffffffffffffffffffffffffffffffffffffffff168152602001908152602001600020600001546000858154811061117657fe5b906000526020600020906006020160000160008282540192505081905550611208565b600260003373ffffffffffffffffffffffffffffffffffffffff1673ffffffffffffffffffffffffffffffffffffffff16815260200190815260200160002060000154600085815481106111e957fe5b9060005260206000209060060201600101600082825401925050819055505b60016000858154811061121757fe5b906000526020600020906006020160050160003373ffffffffffffffffffffffffffffffffffffffff1673ffffffffffffffffffffffffffffffffffffffff16815260200190815260200160002060040160026101000a81548160ff02191690831515021790555050505050565b600080600480600481111561129657fe5b600360009054906101000a900460ff1660048111156112b157fe5b14611324576040517f08c379a000000000000000000000000000000000000000000000000000000000815260040180806020018281038252601d8152602001807f496e76616c696420506861736520666f72207468697320616374696f6e00000081525060200191505060405180910390fd5b6000848154811061133157fe5b90600052602060002090600602016000015492506000848154811061135257fe5b90600052602060002090600602016001015491508183111561137f5760018284031161137a57fe5b61138c565b60018383031161138b57fe5b5b50915091565b600360009054906101000a900460ff1681565b60018060048111156113b357fe5b600360009054906101000a900460ff1660048111156113ce57fe5b14611441576040517f08c379a000000000000000000000000000000000000000000000000000000000815260040180806020018281038252601d8152602001807f496e76616c696420506861736520666f72207468697320616374696f6e00000081525060200191505060405180910390fd5b60011515600260003373ffffffffffffffffffffffffffffffffffffffff1673ffffffffffffffffffffffffffffffffffffffff16815260200190815260200160002060040160039054906101000a900460ff1615151461150a576040517f08c379a00000000000000000000000000000000000000000000000000000000081526004018080602001828103825260168152602001807f4e6f742061205265676973746572656420566f7465720000000000000000000081525060200191505060405180910390fd5b6000600260003373ffffffffffffffffffffffffffffffffffffffff1673ffffffffffffffffffffffffffffffffffffffff16815260200190815260200160002060020154116115c2576040517f08c379a00000000000000000000000000000000000000000000000000000000081526004018080602001828103825260168152602001807f496e76616c6964205065746974696f6e20436f756e740000000000000000000081525060200191505060405180910390fd5b60008311611638576040517f08c379a00000000000000000000000000000000000000000000000000000000081526004018080602001828103825260108152602001807f496e76616c6964205065746974696f6e0000000000000000000000000000000081525060200191505060405180910390fd5b60028081111561164457fe5b82600281111561165057fe5b11156116c4576040517f08c379a00000000000000000000000000000000000000000000000000000000081526004018080602001828103825260168152602001807f496e76616c6964205065746974696f6e2053636f70650000000000000000000081525060200191505060405180910390fd5b6001600260003373ffffffffffffffffffffffffffffffffffffffff1673ffffffffffffffffffffffffffffffffffffffff1681526020019081526020016000206002015403600260003373ffffffffffffffffffffffffffffffffffffffff1673ffffffffffffffffffffffffffffffffffffffff16815260200190815260200160002060020181905550816000848154811061175e57fe5b906000526020600020906006020160040160006101000a81548160ff0219169083600281111561178a57fe5b0217905550600080848154811061179d57fe5b9060005260206000209060060201600201819055600084815481106117be57fe5b9060005260206000209060060201600101819055600084815481106117df57fe5b90600052602060002090600602016000018190555050505056fe4f6e6c79204368616972706572736f6e20697320616c6c6f77656420746f20706572666f726d207468697320616374696f6ea165627a7a72305820d27dfa470bee1a1013c14b1cdc1d9de711b1caff7b481e29f4810b5ac8b69f780029",
  "source": "pragma solidity ^0.5.2;\r\n \r\ncontract Change_Org {\r\n    enum voteType {For, Against}\r\n    enum scope {Local, National, International}\r\n\r\n    struct Voter {\r\n        uint weight;\r\n        uint voteCount;\r\n        uint petitionCount;\r\n        uint age;\r\n        bool expert; // bool expert if the voter is the domain expert\r\n        scope voterScope;\r\n        bool voted;\r\n        bool registered;\r\n    }\r\n\r\n    struct Petition {\r\n        uint256 forCount;\r\n        uint256 againstCount;\r\n        uint donation;\r\n        uint petitionNumber;\r\n        scope petitionScope;\r\n        mapping(address => Voter) petitionVotes;\r\n    }\r\n\r\n    Petition[] petitions;\r\n\r\n    address chairperson;\r\n    mapping(address => Voter) voterList;\r\n\r\n    enum Phase{Init, Regs, Vote, Donate, Done}\r\n\r\n    Phase public state = Phase.Init;\r\n\r\n    modifier validPhase(Phase reqPhase) { \r\n        require(state == reqPhase, 'Invalid Phase for this action');\r\n        _;    \r\n    }\r\n\r\n    modifier onlyChair() {\r\n        require(msg.sender == chairperson, 'Only Chairperson is allowed to perform this action');\r\n        _;\r\n    }\r\n\r\n    modifier validAge() {\r\n        require(voterList[msg.sender].age > 18, 'Invalid Age');\r\n        _;\r\n    }\r\n\r\n    modifier validScope(uint petitionNumber) {\r\n        require(voterList[msg.sender].voterScope >= petitions[petitionNumber].petitionScope, 'Invalid Voter Scope');\r\n        _;\r\n    }\r\n\r\n    modifier validPetitionCount() {\r\n        require(voterList[msg.sender].petitionCount > 0, 'Invalid Petition Count');\r\n        _;\r\n    }\r\n\r\n    modifier registeredVoter() {\r\n        require(voterList[msg.sender].registered == true, 'Not a Registered Voter');\r\n        _;\r\n    }\r\n\r\n    constructor (uint maxNumPetitions) public {\r\n        chairperson = msg.sender;\r\n        voterList[chairperson].weight = 2; //weight 2 for chairperson\r\n        voterList[chairperson].voteCount = 5;\r\n        voterList[chairperson].petitionCount = 100;\r\n        voterList[chairperson].age = 35;\r\n        voterList[chairperson].voterScope = scope.International;\r\n        voterList[chairperson].registered = true;\r\n        petitions.length = maxNumPetitions;\r\n    }\r\n\r\n    function changeState(Phase x) public onlyChair {\r\n        require (x > state, 'Invalid Phase Change');\r\n        state = x;\r\n    }\r\n\r\n    //The chairperson or any registered voter with a valid petition count can raise a petition in a Registration phase\r\n    function raisePetition(uint petitionNumber, scope petitionScope) public validPhase(Phase.Regs) registeredVoter() validPetitionCount()  {\r\n        require(petitionNumber > 0, 'Invalid Petition'); // valid petition number\r\n        require(petitionScope <= scope.International, 'Invalid Petition Scope'); // valid petition type\r\n        \r\n        voterList[msg.sender].petitionCount = voterList[msg.sender].petitionCount - 1;\r\n        petitions[petitionNumber].petitionScope = petitionScope;\r\n\r\n        petitions[petitionNumber].forCount = petitions[petitionNumber].againstCount = petitions[petitionNumber].donation = 0;\r\n    }\r\n\r\n    //Function to register a voter, Only chair can register a voter with his age, scope and expert flag\r\n    function registerVoter(address voter, bool expert, uint age, scope voterScope) public validPhase(Phase.Regs) onlyChair {\r\n        voterList[voter].registered = true;\r\n        voterList[voter].age = age;\r\n        voterList[voter].voterScope = voterScope;\r\n        if (true == expert)\r\n            voterList[voter].weight = 3; // weight = 3 for the domain expert\r\n        else\r\n            voterList[voter].weight = 1;\r\n\r\n        voterList[voter].voteCount = 5;\r\n        voterList[voter].petitionCount = 3;\r\n    }\r\n\r\n    // Function to vote for a particular petition \r\n    function vote(uint petitionNumber, voteType voteType_) public registeredVoter() validPhase(Phase.Vote) validScope(petitionNumber) validAge() {\r\n        require(petitions[petitionNumber].petitionVotes[msg.sender].voted == false, 'This Voter has already voted.'); // meaning the voter shouldn't have voted for the same proposal before \r\n        require (voterList[msg.sender].voteCount > 0, 'Vote count Exceeded');\r\n        require (petitionNumber < petitions.length, 'Unknown Petition');\r\n        require(voterList[msg.sender].voterScope >= petitions[petitionNumber].petitionScope, \"Invalid Voter Scope\");\r\n\r\n        voterList[msg.sender].voteCount = voterList[msg.sender].voteCount - 1;\r\n        if(voteType_ == voteType.For) {\r\n            petitions[petitionNumber].forCount += voterList[msg.sender].weight;\r\n        } else { // _type == voteType.Against\r\n            petitions[petitionNumber].againstCount += voterList[msg.sender].weight;\r\n        }\r\n        petitions[petitionNumber].petitionVotes[msg.sender].voted = true;\r\n    }\r\n\r\n    // Function to donate for a particular petition, after voting   \r\n    function donate(uint petitionNumber, uint amount) public validPhase(Phase.Donate) registeredVoter() {\r\n        assert(amount > 0 && amount % 10 == 0); // donation amount should be greater than 0 and in multiple of $10 \r\n        petitions[petitionNumber].donation += amount;  \r\n    }\r\n\r\n    // Function to get the final status of a particular petition after the voting phase is done.\r\n    function reqPetitionStatus(uint petitionNumber) public validPhase(Phase.Done) view returns (uint256 forCount, uint256 againstCount) {\r\n        forCount = petitions[petitionNumber].forCount;\r\n        againstCount = petitions[petitionNumber].againstCount;\r\n        if(forCount > againstCount)\r\n            assert(forCount - againstCount > 1); // case where we have a tie\r\n        else\r\n            assert(againstCount - forCount > 1); // case where we have a tie\r\n    }\r\n\r\n    // Function to get the total donation amount for a particular petition after the donation phase is done.\r\n    function reqDonationAmount(uint petitionNumber) public validPhase(Phase.Done) view returns (uint256 usd) {\r\n        usd = petitions[petitionNumber].donation;\r\n    }\r\n\r\n    function getCurrentState() public view returns (Phase currentState){\r\n        currentState = state;\r\n    }\r\n}",
  "sourcePath": "/Users/sumitkumar/UBuffalo/Sem1/Blockchain/lab1/part2/change_org/change_org-contract/contracts/change_org.sol",
  "compiler": {
    "name": "solc",
    "version": "0.5.8+commit.23d335f2.Emscripten.clang"
  },
  "schemaVersion": "3.0.16",
  "updatedAt": "2019-11-15T22:39:31.855Z",
  "devdoc": {
    "methods": {}
  },
  "userdoc": {
    "methods": {}
  }
}