{
  "contractName": "Change_Org",
  "abi": [
    {
      "constant": true,
      "inputs": [],
      "name": "state",
      "outputs": [
        {
          "name": "",
          "type": "uint8"
        }
      ],
      "payable": false,
      "stateMutability": "view",
      "type": "function"
    },
    {
      "inputs": [
        {
          "name": "maxNumPetitions",
          "type": "uint256"
        }
      ],
      "payable": false,
      "stateMutability": "nonpayable",
      "type": "constructor"
    },
    {
      "constant": false,
      "inputs": [
        {
          "name": "x",
          "type": "uint8"
        }
      ],
      "name": "changeState",
      "outputs": [],
      "payable": false,
      "stateMutability": "nonpayable",
      "type": "function"
    },
    {
      "constant": false,
      "inputs": [
        {
          "name": "petitionNumber",
          "type": "uint256"
        },
        {
          "name": "petitionScope",
          "type": "uint8"
        }
      ],
      "name": "raisePetition",
      "outputs": [],
      "payable": false,
      "stateMutability": "nonpayable",
      "type": "function"
    },
    {
      "constant": false,
      "inputs": [
        {
          "name": "voter",
          "type": "address"
        },
        {
          "name": "expert",
          "type": "bool"
        },
        {
          "name": "age",
          "type": "uint256"
        },
        {
          "name": "voterScope",
          "type": "uint8"
        }
      ],
      "name": "registerVoter",
      "outputs": [],
      "payable": false,
      "stateMutability": "nonpayable",
      "type": "function"
    },
    {
      "constant": false,
      "inputs": [
        {
          "name": "petitionNumber",
          "type": "uint256"
        },
        {
          "name": "voteType_",
          "type": "uint8"
        }
      ],
      "name": "vote",
      "outputs": [],
      "payable": false,
      "stateMutability": "nonpayable",
      "type": "function"
    },
    {
      "constant": false,
      "inputs": [
        {
          "name": "petitionNumber",
          "type": "uint256"
        },
        {
          "name": "amount",
          "type": "uint256"
        }
      ],
      "name": "donate",
      "outputs": [],
      "payable": false,
      "stateMutability": "nonpayable",
      "type": "function"
    },
    {
      "constant": true,
      "inputs": [
        {
          "name": "petitionNumber",
          "type": "uint256"
        }
      ],
      "name": "reqPetitionStatus",
      "outputs": [
        {
          "name": "forCount",
          "type": "uint256"
        },
        {
          "name": "againstCount",
          "type": "uint256"
        }
      ],
      "payable": false,
      "stateMutability": "view",
      "type": "function"
    },
    {
      "constant": true,
      "inputs": [
        {
          "name": "petitionNumber",
          "type": "uint256"
        }
      ],
      "name": "reqDonationAmount",
      "outputs": [
        {
          "name": "usd",
          "type": "uint256"
        }
      ],
      "payable": false,
      "stateMutability": "view",
      "type": "function"
    }
  ],
  "bytecode": "0x60806040526000600360006101000a81548160ff021916908360048111156200002457fe5b02179055503480156200003657600080fd5b5060405160208062001a50833981018060405260208110156200005857600080fd5b810190808051906020019092919050505033600160006101000a81548173ffffffffffffffffffffffffffffffffffffffff021916908373ffffffffffffffffffffffffffffffffffffffff1602179055506002806000600160009054906101000a900473ffffffffffffffffffffffffffffffffffffffff1673ffffffffffffffffffffffffffffffffffffffff1673ffffffffffffffffffffffffffffffffffffffff16815260200190815260200160002060000181905550600560026000600160009054906101000a900473ffffffffffffffffffffffffffffffffffffffff1673ffffffffffffffffffffffffffffffffffffffff1673ffffffffffffffffffffffffffffffffffffffff16815260200190815260200160002060010181905550606460026000600160009054906101000a900473ffffffffffffffffffffffffffffffffffffffff1673ffffffffffffffffffffffffffffffffffffffff1673ffffffffffffffffffffffffffffffffffffffff16815260200190815260200160002060020181905550602360026000600160009054906101000a900473ffffffffffffffffffffffffffffffffffffffff1673ffffffffffffffffffffffffffffffffffffffff1673ffffffffffffffffffffffffffffffffffffffff168152602001908152602001600020600301819055506002806000600160009054906101000a900473ffffffffffffffffffffffffffffffffffffffff1673ffffffffffffffffffffffffffffffffffffffff1673ffffffffffffffffffffffffffffffffffffffff16815260200190815260200160002060040160016101000a81548160ff02191690836002811115620002d257fe5b0217905550600160026000600160009054906101000a900473ffffffffffffffffffffffffffffffffffffffff1673ffffffffffffffffffffffffffffffffffffffff1673ffffffffffffffffffffffffffffffffffffffff16815260200190815260200160002060040160036101000a81548160ff021916908315150217905550806000816200036491906200036c565b5050620003f7565b8154818355818111156200039c576006028160060283600052602060002091820191016200039b9190620003a1565b5b505050565b620003f491905b80821115620003f0576000808201600090556001820160009055600282016000905560038201600090556004820160006101000a81549060ff021916905550600601620003a8565b5090565b90565b61164980620004076000396000f3fe608060405234801561001057600080fd5b50600436106100885760003560e01c8063943e82161161005b578063943e82161461019f578063bfa3a1b5146101da578063c19d93fb14610223578063d67f985b1461024f57610088565b80630cdd53f61461008d578063268f1153146100c55780634966bf7b146100f65780636850179c1461015d575b600080fd5b6100c3600480360360408110156100a357600080fd5b81019080803590602001909291908035906020019092919050505061028a565b005b6100f4600480360360208110156100db57600080fd5b81019080803560ff169060200190929190505050610440565b005b61015b6004803603608081101561010c57600080fd5b81019080803573ffffffffffffffffffffffffffffffffffffffff16906020019092919080351515906020019092919080359060200190929190803560ff1690602001909291905050506105c3565b005b6101896004803603602081101561017357600080fd5b8101908080359060200190929190505050610961565b6040518082815260200191505060405180910390f35b6101d8600480360360408110156101b557600080fd5b8101908080359060200190929190803560ff169060200190929190505050610a26565b005b610206600480360360208110156101f057600080fd5b810190808035906020019092919050505061113f565b604051808381526020018281526020019250505060405180910390f35b61022b6111af565b6040518082600481111561023b57fe5b60ff16815260200191505060405180910390f35b6102886004803603604081101561026557600080fd5b8101908080359060200190929190803560ff1690602001909291905050506111c2565b005b600380600481111561029857fe5b600360009054906101000a900460ff1660048111156102b357fe5b14610326576040517f08c379a000000000000000000000000000000000000000000000000000000000815260040180806020018281038252600a8152602001807f76616c696450686173650000000000000000000000000000000000000000000081525060200191505060405180910390fd5b60011515600260003373ffffffffffffffffffffffffffffffffffffffff1673ffffffffffffffffffffffffffffffffffffffff16815260200190815260200160002060040160039054906101000a900460ff161515146103ef576040517f08c379a000000000000000000000000000000000000000000000000000000000815260040180806020018281038252600f8152602001807f72656769737465726564566f746572000000000000000000000000000000000081525060200191505060405180910390fd5b60008211801561040957506000600a838161040657fe5b06145b61040f57fe5b816000848154811061041d57fe5b906000526020600020906006020160020160008282540192505081905550505050565b600160009054906101000a900473ffffffffffffffffffffffffffffffffffffffff1673ffffffffffffffffffffffffffffffffffffffff163373ffffffffffffffffffffffffffffffffffffffff1614610503576040517f08c379a00000000000000000000000000000000000000000000000000000000081526004018080602001828103825260098152602001807f6f6e6c794368616972000000000000000000000000000000000000000000000081525060200191505060405180910390fd5b600360009054906101000a900460ff16600481111561051e57fe5b81600481111561052a57fe5b1161059d576040517f08c379a000000000000000000000000000000000000000000000000000000000815260040180806020018281038252600b8152602001807f6368616e6765537461746500000000000000000000000000000000000000000081525060200191505060405180910390fd5b80600360006101000a81548160ff021916908360048111156105bb57fe5b021790555050565b60018060048111156105d157fe5b600360009054906101000a900460ff1660048111156105ec57fe5b1461065f576040517f08c379a000000000000000000000000000000000000000000000000000000000815260040180806020018281038252600a8152602001807f76616c696450686173650000000000000000000000000000000000000000000081525060200191505060405180910390fd5b600160009054906101000a900473ffffffffffffffffffffffffffffffffffffffff1673ffffffffffffffffffffffffffffffffffffffff163373ffffffffffffffffffffffffffffffffffffffff1614610722576040517f08c379a00000000000000000000000000000000000000000000000000000000081526004018080602001828103825260098152602001807f6f6e6c794368616972000000000000000000000000000000000000000000000081525060200191505060405180910390fd5b6001600260008773ffffffffffffffffffffffffffffffffffffffff1673ffffffffffffffffffffffffffffffffffffffff16815260200190815260200160002060040160036101000a81548160ff02191690831515021790555082600260008773ffffffffffffffffffffffffffffffffffffffff1673ffffffffffffffffffffffffffffffffffffffff1681526020019081526020016000206003018190555081600260008773ffffffffffffffffffffffffffffffffffffffff1673ffffffffffffffffffffffffffffffffffffffff16815260200190815260200160002060040160016101000a81548160ff0219169083600281111561082257fe5b0217905550831515600115151415610881576003600260008773ffffffffffffffffffffffffffffffffffffffff1673ffffffffffffffffffffffffffffffffffffffff168152602001908152602001600020600001819055506108ca565b6001600260008773ffffffffffffffffffffffffffffffffffffffff1673ffffffffffffffffffffffffffffffffffffffff168152602001908152602001600020600001819055505b6005600260008773ffffffffffffffffffffffffffffffffffffffff1673ffffffffffffffffffffffffffffffffffffffff168152602001908152602001600020600101819055506003600260008773ffffffffffffffffffffffffffffffffffffffff1673ffffffffffffffffffffffffffffffffffffffff168152602001908152602001600020600201819055505050505050565b6000600480600481111561097157fe5b600360009054906101000a900460ff16600481111561098c57fe5b146109ff576040517f08c379a000000000000000000000000000000000000000000000000000000000815260040180806020018281038252600a8152602001807f76616c696450686173650000000000000000000000000000000000000000000081525060200191505060405180910390fd5b60008381548110610a0c57fe5b906000526020600020906006020160020154915050919050565b6002806004811115610a3457fe5b600360009054906101000a900460ff166004811115610a4f57fe5b14610ac2576040517f08c379a000000000000000000000000000000000000000000000000000000000815260040180806020018281038252600a8152602001807f76616c696450686173650000000000000000000000000000000000000000000081525060200191505060405180910390fd5b8260008181548110610ad057fe5b906000526020600020906006020160040160009054906101000a900460ff166002811115610afa57fe5b600260003373ffffffffffffffffffffffffffffffffffffffff1673ffffffffffffffffffffffffffffffffffffffff16815260200190815260200160002060040160019054906101000a900460ff166002811115610b5557fe5b1015610bc9576040517f08c379a000000000000000000000000000000000000000000000000000000000815260040180806020018281038252600a8152602001807f76616c696453636f70650000000000000000000000000000000000000000000081525060200191505060405180910390fd5b6012600260003373ffffffffffffffffffffffffffffffffffffffff1673ffffffffffffffffffffffffffffffffffffffff1681526020019081526020016000206003015411610c81576040517f08c379a00000000000000000000000000000000000000000000000000000000081526004018080602001828103825260088152602001807f76616c696441676500000000000000000000000000000000000000000000000081525060200191505060405180910390fd5b6000151560008581548110610c9257fe5b906000526020600020906006020160050160003373ffffffffffffffffffffffffffffffffffffffff1673ffffffffffffffffffffffffffffffffffffffff16815260200190815260200160002060040160029054906101000a900460ff16151514610d66576040517f08c379a00000000000000000000000000000000000000000000000000000000081526004018080602001828103825260038152602001807f313039000000000000000000000000000000000000000000000000000000000081525060200191505060405180910390fd5b6000600260003373ffffffffffffffffffffffffffffffffffffffff1673ffffffffffffffffffffffffffffffffffffffff1681526020019081526020016000206001015411610e1e576040517f08c379a00000000000000000000000000000000000000000000000000000000081526004018080602001828103825260038152602001807f313130000000000000000000000000000000000000000000000000000000000081525060200191505060405180910390fd5b6000805490508410610e98576040517f08c379a00000000000000000000000000000000000000000000000000000000081526004018080602001828103825260078152602001807f726571756972650000000000000000000000000000000000000000000000000081525060200191505060405180910390fd5b60008481548110610ea557fe5b906000526020600020906006020160040160009054906101000a900460ff166002811115610ecf57fe5b600260003373ffffffffffffffffffffffffffffffffffffffff1673ffffffffffffffffffffffffffffffffffffffff16815260200190815260200160002060040160019054906101000a900460ff166002811115610f2a57fe5b1015610f3557600080fd5b6001600260003373ffffffffffffffffffffffffffffffffffffffff1673ffffffffffffffffffffffffffffffffffffffff1681526020019081526020016000206001015403600260003373ffffffffffffffffffffffffffffffffffffffff1673ffffffffffffffffffffffffffffffffffffffff1681526020019081526020016000206001018190555060006001811115610fce57fe5b836001811115610fda57fe5b141561105357600260003373ffffffffffffffffffffffffffffffffffffffff1673ffffffffffffffffffffffffffffffffffffffff168152602001908152602001600020600001546000858154811061103057fe5b9060005260206000209060060201600001600082825401925050819055506110c2565b600260003373ffffffffffffffffffffffffffffffffffffffff1673ffffffffffffffffffffffffffffffffffffffff16815260200190815260200160002060000154600085815481106110a357fe5b9060005260206000209060060201600101600082825401925050819055505b6001600085815481106110d157fe5b906000526020600020906006020160050160003373ffffffffffffffffffffffffffffffffffffffff1673ffffffffffffffffffffffffffffffffffffffff16815260200190815260200160002060040160026101000a81548160ff02191690831515021790555050505050565b6000806000838154811061114f57fe5b90600052602060002090600602016000015491506000838154811061117057fe5b90600052602060002090600602016001015490508082111561119d5760018183031161119857fe5b6111aa565b6001828203116111a957fe5b5b915091565b600360009054906101000a900460ff1681565b60018060048111156111d057fe5b600360009054906101000a900460ff1660048111156111eb57fe5b1461125e576040517f08c379a000000000000000000000000000000000000000000000000000000000815260040180806020018281038252600a8152602001807f76616c696450686173650000000000000000000000000000000000000000000081525060200191505060405180910390fd5b60011515600260003373ffffffffffffffffffffffffffffffffffffffff1673ffffffffffffffffffffffffffffffffffffffff16815260200190815260200160002060040160039054906101000a900460ff16151514611327576040517f08c379a000000000000000000000000000000000000000000000000000000000815260040180806020018281038252600f8152602001807f72656769737465726564566f746572000000000000000000000000000000000081525060200191505060405180910390fd5b6000600260003373ffffffffffffffffffffffffffffffffffffffff1673ffffffffffffffffffffffffffffffffffffffff16815260200190815260200160002060020154116113df576040517f08c379a00000000000000000000000000000000000000000000000000000000081526004018080602001828103825260128152602001807f76616c69645065746974696f6e436f756e74000000000000000000000000000081525060200191505060405180910390fd5b60008311611455576040517f08c379a00000000000000000000000000000000000000000000000000000000081526004018080602001828103825260128152602001807f7065746974696f6e4e756d626572203e2030000000000000000000000000000081525060200191505060405180910390fd5b60028081111561146157fe5b82600281111561146d57fe5b11156114c4576040517f08c379a00000000000000000000000000000000000000000000000000000000081526004018080602001828103825260248152602001806115fa6024913960400191505060405180910390fd5b6001600260003373ffffffffffffffffffffffffffffffffffffffff1673ffffffffffffffffffffffffffffffffffffffff1681526020019081526020016000206002015403600260003373ffffffffffffffffffffffffffffffffffffffff1673ffffffffffffffffffffffffffffffffffffffff16815260200190815260200160002060020181905550816000848154811061155e57fe5b906000526020600020906006020160040160006101000a81548160ff0219169083600281111561158a57fe5b0217905550600080848154811061159d57fe5b9060005260206000209060060201600201819055600084815481106115be57fe5b9060005260206000209060060201600101819055600084815481106115df57fe5b90600052602060002090600602016000018190555050505056fe7065746974696f6e53636f7065203c3d2073636f70652e496e7465726e6174696f6e616ca165627a7a723058206a8851b88d61e839fe40d9c68e40227a9d3a6eea205afc5281bc6d05040bf1bd0029",
  "source": "pragma solidity ^0.5.2;\r\n \r\ncontract Change_Org {\r\n    enum voteType {For, Against}\r\n    enum scope {Local, National, International}\r\n    \r\n    struct Voter {\r\n        uint weight;\r\n        uint voteCount;\r\n        uint petitionCount;\r\n        uint age;\r\n        bool expert; // bool expert if the voter is the domain expert\r\n        scope voterScope;\r\n        bool voted;\r\n        bool registered;\r\n    }\r\n    \r\n    struct Petition {\r\n        uint256 forCount;\r\n        uint256 againstCount;\r\n        uint donation;\r\n        uint petitionNumber;\r\n        scope petitionScope;\r\n        mapping(address => Voter) petitionVotes;\r\n    }\r\n    \r\n    Petition[] petitions;\r\n    \r\n    address chairperson;\r\n    mapping(address => Voter) voterList;\r\n    \r\n    enum Phase{Init, Regs, Vote, Donate, Done}\r\n    \r\n    Phase public state = Phase.Init;\r\n\r\n    modifier validPhase(Phase reqPhase) { \r\n        require(state == reqPhase, 'validPhase');\r\n        _;    \r\n    }\r\n\r\n    modifier onlyChair() {\r\n        require(msg.sender == chairperson, 'onlyChair');\r\n        _;\r\n    }\r\n    \r\n    modifier validAge() {\r\n        require(voterList[msg.sender].age > 18, 'validAge');\r\n        _;\r\n    }\r\n    \r\n    modifier validScope(uint petitionNumber) {\r\n        require(voterList[msg.sender].voterScope >= petitions[petitionNumber].petitionScope, 'validScope');\r\n        _;\r\n    }\r\n    \r\n    modifier validPetitionCount() {\r\n        require(voterList[msg.sender].petitionCount > 0, 'validPetitionCount');\r\n        _;\r\n    }\r\n    \r\n    modifier registeredVoter() {\r\n        require(voterList[msg.sender].registered == true, 'registeredVoter');\r\n        _;\r\n    }\r\n    \r\n    constructor (uint maxNumPetitions) public {\r\n        chairperson = msg.sender;\r\n        voterList[chairperson].weight = 2; //weight 2 for chairperson\r\n        voterList[chairperson].voteCount = 5;\r\n        voterList[chairperson].petitionCount = 100;\r\n        voterList[chairperson].age = 35;\r\n        voterList[chairperson].voterScope = scope.International;\r\n        voterList[chairperson].registered = true;\r\n        petitions.length = maxNumPetitions;\r\n    }\r\n\r\n    function changeState(Phase x) public onlyChair {\r\n        require (x > state, 'changeState');\r\n        state = x;\r\n    }\r\n    \r\n    //The chairperson or any registered voter with a valid petition count can raise a petition in a Registration phase\r\n    function raisePetition(uint petitionNumber, scope petitionScope) public validPhase(Phase.Regs) registeredVoter() validPetitionCount()  {\r\n        require(petitionNumber > 0, 'petitionNumber > 0'); // valid petition number\r\n        require(petitionScope <= scope.International, 'petitionScope <= scope.International'); // valid petition type\r\n        \r\n        voterList[msg.sender].petitionCount = voterList[msg.sender].petitionCount - 1;\r\n        petitions[petitionNumber].petitionScope = petitionScope;\r\n\r\n        petitions[petitionNumber].forCount = petitions[petitionNumber].againstCount = petitions[petitionNumber].donation = 0;\r\n    }\r\n    \r\n    //Function to register a voter, Only chair can register a voter with his age, scope and expert flag\r\n    function registerVoter(address voter, bool expert, uint age, scope voterScope) public validPhase(Phase.Regs) onlyChair {\r\n        voterList[voter].registered = true;\r\n        voterList[voter].age = age;\r\n        voterList[voter].voterScope = voterScope;\r\n        if (true == expert)\r\n            voterList[voter].weight = 3; // weight = 3 for the domain expert\r\n        else\r\n            voterList[voter].weight = 1;\r\n\r\n        voterList[voter].voteCount = 5;\r\n        voterList[voter].petitionCount = 3;\r\n    }\r\n\r\n    // Function to vote for a particular petition \r\n    function vote(uint petitionNumber, voteType voteType_) public validPhase(Phase.Vote) validScope(petitionNumber) validAge() {\r\n        require(petitions[petitionNumber].petitionVotes[msg.sender].voted == false, '109'); // meaning the voter shouldn't have voted for the same proposal before \r\n        require (voterList[msg.sender].voteCount > 0, '110');\r\n        require (petitionNumber < petitions.length, 'require');\r\n        require(voterList[msg.sender].voterScope >= petitions[petitionNumber].petitionScope);\r\n\r\n        voterList[msg.sender].voteCount = voterList[msg.sender].voteCount - 1;\r\n        if(voteType_ == voteType.For) {\r\n            petitions[petitionNumber].forCount += voterList[msg.sender].weight;\r\n        } else { // _type == voteType.Against\r\n            petitions[petitionNumber].againstCount += voterList[msg.sender].weight;\r\n        }\r\n        petitions[petitionNumber].petitionVotes[msg.sender].voted = true;\r\n    }\r\n \r\n    // Function to donate for a particular petition, after voting   \r\n    function donate(uint petitionNumber, uint amount) public validPhase(Phase.Donate) registeredVoter() {\r\n        assert(amount > 0 && amount % 10 == 0); // donation amount should be greater than 0 and in multiple of $10 \r\n        petitions[petitionNumber].donation += amount;  \r\n    }\r\n  \r\n    // Function to get the final status of a particular petition after the voting phase is done.\r\n    function reqPetitionStatus(uint petitionNumber) public view returns (uint256 forCount, uint256 againstCount) {\r\n        forCount = petitions[petitionNumber].forCount;\r\n        againstCount = petitions[petitionNumber].againstCount;\r\n        if(forCount > againstCount)\r\n            assert(forCount - againstCount > 1); // case where we have a tie\r\n        else\r\n           assert(againstCount - forCount > 1); // case where we have a tie\r\n    }\r\n    \r\n    // Function to get the total donation amount for a particular petition after the donation phase is done.\r\n    function reqDonationAmount(uint petitionNumber) public validPhase(Phase.Done) view returns (uint256 usd) {\r\n        usd = petitions[petitionNumber].donation;\r\n    }\r\n}",
  "sourcePath": "/Users/sumitkumar/UBuffalo/Sem1/Blockchain/lab1/part2/ballot/ballot-contract/contracts/change_org.sol",
  "compiler": {
    "name": "solc",
    "version": "0.5.8+commit.23d335f2.Emscripten.clang"
  },
  "schemaVersion": "3.0.16",
  "updatedAt": "2019-11-12T18:06:11.337Z",
  "devdoc": {
    "methods": {}
  },
  "userdoc": {
    "methods": {}
  }
}